:100000001CC0F7C4F6C4F5C4F4C4F3C4F2C4F1C40C
:10001000F0C4EFC4EEC4EDC4ECC4C7C4EAC4E9C480
:10002000E8C4E7C432C0E5C4E4C4E3C4E2C4E1C444
:10003000E0C4DFC43F003F05800011241FBECFEFA6
:10004000CDBFDFE3DEBFE4E3F0E040E017C0B591F1
:10005000A59135912591059107FD0CC0959185914C
:10006000EF01F92FE82F05900D92A217B307D9F7EA
:10007000FE0104C01D92A217B307E1F7E933F407AC
:0A00800031F740D3A9C4F894FFCF74
:10008A001F921FB61F9211240F931F932F933F9312
:10009A004F935F936F937F938F939F93AF93BF9386
:1000AA00CF93DF93EF93FF938091100690911106FF
:1000BA008093023F9093033FA0E0B4E030E830938E
:1000CA00060424E020930604C0E2D4E050E15093F1
:1000DA00260400E414E062E06093460448E040939A
:1000EA00260491E0909346042093260490932604D4
:1000FA008091400A81608093400AE0E0F0E2E09358
:10010A004C0AF0934D0A80910606843009F456C0D1
:10011A008530D9F56091023F7091033F693A714089
:10012A0008F4B8C06091023F7091033F6B3D714083
:10013A0008F49BC06091023F7091033F6937724097
:10014A0008F0F8C06091023F7091033F6E30724030
:10015A0008F48DC14091023F5091033F463452400A
:10016A0008F0DBC18091400A8E7F8093400A909309
:10017A0045048EE092E0809312069093130688E479
:10018A0092E0809314069093150680910B06826084
:10019A0080930B06FF91EF91DF91CF91BF91AF91C1
:1001AA009F918F917F916F915F914F913F912F9185
:1001BA001F910F911F901FBE1F901895E091023F4B
:1001CA00F091033FE634F14020F54091023F50910F
:1001DA00033F4D3D510508F49CC04091023F5091A8
:1001EA00033F443F510508F0D1C08091400A8E7FF9
:1001FA008093400A309305048DED90E080931206B7
:10020A009093130686EF90E0809314069093150658
:10021A00BCCFE091023FF091033FE93EF14008F084
:10022A0044C06091023F7091033F6E38714008F4F8
:10023A0033C12091023F3091033F283B314008F0FF
:10024A0001C19091400A9E7F9093400A80930504D1
:10025A008EE891E080931206909313068AEB91E060
:10026A00809314069093150690CF4093250400932B
:10027A00003F1093013F9093043F89EA91E08093F5
:10028A001206909313068DED91E0809314069093D5
:10029A0015067BCF209306061092120610921306BB
:1002AA00109214061092150670CF2091023F3091D9
:1002BA00033F2537324008F47EC02091023F309137
:1002CA00033F2F32334008F0FCC08091023F9091E7
:1002DA00033F8839924008F49CC18091023F909173
:1002EA00033F8E3D924008F0C9C18091400A8E7F3B
:1002FA008093400A6093450488E992E0809312064D
:10030A009093130680EE92E080931406909315065C
:10031A003CCFA093003FB093013F3093043F10922B
:10032A001206109213068FED90E0809314069093B4
:10033A0015062BCF4091023F5091033F4034534062
:10034A0008F05DC04091023F5091033F453A524048
:10035A0008F422C14091023F5091033F20932504A3
:10036A004C3E524008F042C18091400A8E7F8093F1
:10037A00400A85EA92E080931206909313068EEE65
:10038A0092E08093140690931506FFCE30930504ED
:10039A00A093003FB093013F8093043F84EF90E025
:1003AA00809312069093130688E491E080931406D2
:1003BA0090931506EACE2091023F3091033F2331F4
:1003CA00324008F4BFC08091023F9091033F8B34C2
:1003DA00924008F0CCC08091400A8E7F8093400AF8
:1003EA005093250483E192E08093120690931306BA
:1003FA008DE492E08093140690931506C6CE409140
:10040A00023F5091033F4738534008F4DAC0209125
:10041A00023F3091033F2738334008F41BC1C09391
:10042A00003FD093013F9093043F87E893E0809385
:10043A001206909313068FEF93E08093140690931D
:10044A001506A3CE80930504C093003FD093013FC5
:10045A005093043F88EB91E0809312069093130621
:10046A008BEE91E080931406909315068ECE9093AE
:10047A004504C093003FD093013F4093043F8BED66
:10048A0091E0809312069093130680E192E08093A4
:10049A0014069093150679CEA093003FB093013FBE
:1004AA003093043F8093050486E491E0809312061A
:1004BA009093130680E991E08093140690931506B1
:1004CA0064CE2091023F3091033F2F3F334008F022
:1004DA00B5C02091023F3091033F2537334008F4DD
:1004EA00E2C02091023F3091033F233D334008F0A0
:1004FA00EFC08091400A8E7F8093400A4093250482
:10050A0085E793E0809312069093130685ED93E0B6
:10051A00809314069093150638CE90934504C093A1
:10052A00003FD093013F2093043F86E492E08093FA
:10053A001206909313068BE792E080931406909329
:10054A00150623CEA093003FB093013F8093043F4A
:10055A005093250489EE91E0809312069093130636
:10056A0085E192E080931406909315060ECE50937F
:10057A0025040093003F1093013F6093043F8BE4EE
:10058A0092E0809312069093130687E792E0809395
:10059A00140690931506F9CD209325040093003F85
:1005AA001093013F9093043F89E792E080931206EB
:1005BA009093130687EA92E08093140690931506A7
:1005CA00E4CD90932504C093003FD093013F20933C
:1005DA00043F80E493E0809312069093130689E81F
:1005EA0093E08093140690931506CFCDC093003FF5
:1005FA00D093013F9093043F8CEE92E080931206D1
:10060A009093130682E493E0809314069093150660
:10061A00BCCDC093003FD093013F5093043F6093F9
:10062A00450485E792E080931206909313068AE9BF
:10063A0092E08093140690931506A7CD85E08093E7
:10064A0006061092120610921306109214061092C1
:10065A0015069BCD909325048091400A8E7F809346
:10066A00400A87E893E0809312069093130688EE77
:10067A0093E0809314069093150687CD6093450402
:10068A00C093003FD093013F4093043F8EED92E028
:10069A00809312069093130681E393E080931406E5
:1006AA009093150672CD0093003F1093013F60931B
:1006BA00043F409325048FE293E0809312069093BF
:1006CA00130687E793E080931406909315065DCD91
:1006DA00409325040093003F1093013F9093043FF9
:1006EA0083ED93E080931206909313068EEF93E0C6
:0A06FA00809314069093150648CD76
:10070400609161006E7F81E690E06BD1809163001F
:1007140084FFFCCF60916000616080E690E061D16D
:100724008091630085FFFCCFF89484D08091400AC7
:100734008E7F8093400A8091400A82608093400AB1
:100744001092410A8091410A8093410A80E090E22C
:1007540080934C0A90934D0A8091450A816080935E
:10076400450A1092003F1092013F1092043FC4D0FA
:100774001092A0008091A00080638093A0008091DB
:1007840000068E7F809300061092000610920106E8
:1007940010920206109203061092040610920506A7
:1007A4001092160610920A06109206068091000610
:1007B40080930006809100068260809300068091F9
:1007C40001068093010680910206836480930206E9
:1007D400809103068F6A80930306809104068460E7
:1007E40080930406809105068F61809305068091AD
:1007F400060684608093060680910A0682608093D0
:100804000A068091160681608093160610921206DD
:100814001092130610921406109215068091000689
:1008240081608093000680910806816080930806A9
:040834007894FFCFE6
:10083800CF93DF93E0E0F4E080E88183868384E06F
:1008480081838683A0E2B4E040E111964C9311972E
:1008580016964C931697C0E4D4E022E029832E83A1
:1008680098E011969C93119716969C93169731E0F1
:1008780039833E8311968C93119716968C9316970D
:1008880011963C93119716963C9316974283348998
:100898003460348B40E2428335893460358B22835F
:1008A80031893860318B928333893860338B30E4F7
:1008B800328336893860368B12962C93129751966C
:1008C8002C915197286051962C93519712964C93DE
:1008D800129755962C915597286055962C938A8394
:1008E8008A8988608A8B9A838B8988608B8BDF9151
:0408F800CF910895FF
:1008FC00CF93DF93E0E2F4E091E09583AFEAB4E0CC
:10090C001197F1F700C00000968384E08583CFEA4D
:10091C00D4E02197F1F700C000008683A0E4B4E096
:10092C0015969C931597CFEAD4E02197F1F700C068
:10093C00000016969C93169798E09583CFEAD4E026
:10094C002197F1F700C00000968392E015969C93D6
:10095C001597CFEAD4E02197F1F700C00000169666
:10096C009C9390E19583AFEAB4E01197F1F700C046
:10097C0000009683E0E0F4E08583CFEAD4E0219791
:10098C00F1F700C00000868380E885838FEA94E04D
:0E099C000197F1F700C00000DF91CF910895A0
:1009AA008F938FB78F93EF93FF93E091003FF0916E
:1009BA00013F8091043F8783E0E4FAE08681816009
:0E09CA008683FF91EF918F918FBF8F911895CB
:0E09D800EC010DD00BD0CE010BD0CE010AD019
:0C09E600DC0128ED209334006C93089590
:0209F20006CB32
:0209F400089564
:0209F600089562
:0209F800089560
:0209FA0045DBDB
:02000004008278
:0900000000007D0000F6FF000085
:02000004008377
:01000000C53A
:00000001FF
