:100000001CC009C708C707C706C705C704C703C779
:1000100002C701C700C7FFC6FEC6D9C6FCC6FBC6DD
:10002000FAC6F9C632C0F7C6F6C6F5C6F4C6F3C6B8
:10003000F2C6F1C63F003F05800011241FBECFEF7E
:10004000CDBFDFE3DEBFE4E3F0E040E017C0B591F1
:10005000A59135912591059107FD0CC0959185914C
:10006000EF01F92FE82F05900D92A217B307D9F7EA
:10007000FE0104C01D92A217B307E1F7E933F407AC
:0A00800031F749D5BBC6F894FFCF55
:10008A001F921FB61F9211240F931F932F933F9312
:10009A004F935F936F937F938F939F93AF93BF9386
:1000AA00CF93DF93EF93FF938091100690911106FF
:1000BA008093023F9093033FA0E0B4E030E830938E
:1000CA00060424E02093060400E214E050E1509371
:1000DA002604C0E4D4E062E06093460448E040931A
:1000EA00260491E0909346042093260490932604D4
:1000FA008091400A81608093400A10924A0A1092C5
:10010A004B0AEAEAFAE0E0934C0AF0934D0A80912E
:10011A000606843009F44DC0853091F56091023F9E
:10012A007091033F673A714008F40CC16091023F35
:10013A007091033F6B3D714008F0C1C02091023FAE
:10014A003091033F233B314008F05BC120E030E2AD
:10015A0020934C0A30934D0A40932504C093003FE4
:10016A00D093013F9093043F87EA91E0809312066F
:10017A009093130685EB91E08093140690931506ED
:10018A0080910B06826080930B06FF91EF91DF91BD
:10019A00CF91BF91AF919F918F917F916F915F9115
:1001AA004F913F912F911F910F911F901FBE1F904A
:1001BA001895E091023FF091033FE634F140E0F5F3
:1001CA004091023F5091033F413D510508F408C157
:1001DA004091023F5091033F4D3D510508F41DC225
:1001EA004091023F5091033F443F510508F4D1C169
:1001FA004091023F5091033F4F3F510511F008F0E3
:10020A006EC240E050E240934C0A50934D0A30933C
:10021A000504A093003FB093013F8093043F84EF0D
:10022A0090E0809312069093130682E091E0809307
:10023A00140690931506A4CFE091023FF091033F74
:10024A00E93EF14008F089C06091023F7091033F96
:10025A006937714008F4FAC16091023F7091033F17
:10026A006E38714008F4BEC12091023F3091033FBD
:10027A00283B314008F45DC22091023F3091033F90
:10028A002D3C314008F0C9C220E030E220934C0AEC
:10029A0030934D0A809305040093003F1093013F69
:1002AA005093043F88EB91E08093120690931306D3
:1002BA008FEC91E0809314069093150661CF6091BC
:1002CA00023F7091033F6937724008F0AFC06091F6
:1002DA00023F7091033F633F714008F46EC1609121
:1002EA00023F7091033F6E30724008F436C240916B
:1002FA00023F5091033F4634524008F4CAC240912B
:10030A00023F5091033F4236524008F020C340E07A
:10031A0050E240934C0A50934D0A9093450400933F
:10032A00003F1093013F2093043F86E492E08093BC
:10033A0012069093130684E692E080931406909333
:10034A0015061ECF20930606109212061092130667
:10035A00109214061092150613CF2091023F309185
:10036A00033F2537324008F0A8C02091023F309160
:10037A00033F273F314008F4C7C12091023F309123
:10038A00033F2331324008F403C28091023F909127
:10039A00033F8B34924008F4ABC28091023F9091A4
:1003AA00033F8736924008F010C380E090E28093C2
:1003BA004C0A90934D0A50932504C093003FD09362
:1003CA00013F6093043F8BE492E08093120690937E
:1003DA00130689E692E08093140690931506D0CE10
:1003EA00A093003FB093013F3093043F109212064E
:1003FA001092130683ED90E08093140690931506ED
:10040A00BFCE40932504C093003FD093013F909301
:10041A00043F83EB91E080931206909313068DEDCF
:10042A0091E08093140690931506AACE4091023F5C
:10043A005091033F4034534008F07AC04091023F44
:10044A005091033F4138524008F4D2C14091023FD3
:10045A005091033F453A524008F42FC28091023F1F
:10046A009091033F8C3E924008F4EDC28091023F86
:10047A009091033F8031934008F014C380E090E2EA
:10048A0080934C0A90934D0A84E08093250480E27D
:10049A0094E08093003F9093013F81E08093043F72
:1004AA008CEE92E0809312069093130682E193E019
:1004BA00809314069093150663CE2091023F3091E3
:1004CA00033F2F32334008F0D6C08091023F90910B
:1004DA00033F8839924008F4B5C18091023F909158
:1004EA00033F8E3D924008F45CC28091023F909196
:1004FA00033F8130934008F07DC280E090E2809310
:10050A004C0A90934D0A609345040093003F109360
:10051A00013F4093043F8EED92E080931206909340
:10052A00130683E093E0809314069093150628CE71
:10053A004091023F5091033F4735534008F443C16D
:10054A004091023F5091033F4738534008F4E4C1B9
:10055A002091023F3091033F263E334008F45FC2A8
:10056A0020E030E220934C0A30934D0A0093003F7A
:10057A001093013F9093043F86EE93E08093120616
:10058A00909313068FEF93E08093140690931506C9
:10059A00F7CD8091400A8E7F8093400A30930504FC
:1005AA008DED90E0809312069093130686EF90E00B
:1005BA008093140690931506E3CD90934504009317
:1005CA00003F1093013F4093043F8BED91E08093ED
:1005DA0012069093130685EF91E080931406909388
:1005EA001506CECD40E050E240934C0A50934D0A96
:1005FA00A093003FB093013F3093043F80930504DA
:10060A0089E791E0809312069093130680E991E0BE
:10061A008093140690931506B3CD80E090E2809300
:10062A004C0A90934D0AA093003FB093013F309338
:10063A00043F81ED90E080931206909313068FEDAC
:10064A0090E080931406909315069ACDA093003FEC
:10065A00B093013F3093043F8093050486E491E010
:10066A0080931206909313068BE791E08093140609
:10067A009093150685CD2091023F3091033F213F8B
:10068A00334008F0FAC02091023F3091033F2734EB
:10069A00334008F471C12091023F3091033F25375E
:1006AA00334008F4E4C12091023F3091033F233DD7
:1006BA00334008F010C28091400A8E7F8093400A2E
:1006CA004093250485E793E08093120690931306DE
:1006DA0085ED93E0809314069093150651CD3093DF
:1006EA000504A093003FB093013F8093043F80E04C
:1006FA0091E0809312069093130688E491E0809328
:10070A001406909315063CCDA093003FB093013F89
:10071A008093043F5093250489EE91E0809312065A
:10072A009093130689EF91E080931406909315062F
:10073A0027CD9091400A9E7F9093400A80930504AA
:10074A008EE891E080931206909313068AEB91E06B
:10075A00809314069093150613CD20E030E220937F
:10076A004C0A30934D0A909345040093003F10932E
:10077A00013F4093043F83EF91E0809312069093E8
:10078A00130680E192E08093140690931506F8CC44
:10079A0020E030E220934C0A30934D0AA093003FA8
:1007AA00B093013F8093043F5093250487EF91E073
:1007BA00809312069093130685E192E080931406C3
:1007CA0090931506DDCC909325040093003F109377
:1007DA00013F2093043F80E493E0809312069093B4
:1007EA00130689E593E08093140690931506C8CC06
:1007FA0020932504C093003FD093013F9093043F78
:10080A0089E792E0809312069093130683E892E0B8
:10081A008093140690931506B3CC80930504009335
:10082A00003F1093013F5093043F8DEC91E0809379
:10083A001206909313068BEE91E080931406909320
:10084A0015069ECC80E090E280934C0A90934D0A64
:10085A000093003F1093013F5093043F6093450477
:10086A0085E792E080931206909313068AE992E054
:10087A00809314069093150683CC85E08093060630
:10088A001092120610921306109214061092150670
:10089A0077CC8091400A8E7F8093400A90934504DA
:1008AA008EE092E0809312069093130688E492E019
:1008BA00809314069093150663CC40E050E240936F
:1008CA004C0A50934D0A20932504C093003FD093BD
:1008DA00013F9093043F81E892E08093120690933F
:1008EA00130687EA92E0809314069093150648CC83
:1008FA008091400A8E7F8093400A5093250483E1B9
:10090A0092E080931206909313068DE492E080930E
:10091A0014069093150634CC40E050E240934C0AFA
:10092A0050934D0A909325040093003F1093013F82
:10093A002093043F87E593E0809312069093130671
:10094A0089E893E0809314069093150619CC909346
:10095A0045040093003F1093013F2093043F82E631
:10096A0092E080931206909313068BE792E08093AD
:10097A0014069093150604CCC093003FD093013F10
:10098A006093043F409325048FE293E0809312061C
:10099A009093130689E493E08093140690931506C6
:1009AA00EFCB8091400A8E7F8093400A6093450482
:1009BA0088E992E0809312069093130680EE92E003
:1009CA008093140690931506DBCB50932504C093AD
:1009DA00003FD093013F6093043F87E692E0809303
:1009EA0012069093130687E792E080931406909379
:1009FA001506C6CB609345040093003F1093013F50
:100A0A004093043F81E093E080931206909313068B
:100A1A0081E393E08093140690931506B1CB9093EB
:100A2A0025048091400A8E7F8093400A87E893E0EC
:100A3A00809312069093130688EE93E0809314062F
:100A4A00909315069DCB209325048091400A8E7FB2
:100A5A008093400A85EA92E08093120690931306E7
:100A6A008EEE92E0809314069093150689CB80E06F
:100A7A0090E280934C0A90934D0AC093003FD09322
:100A8A00013F6093043F4093250487E493E08093F9
:100A9A0012069093130687E793E0809314069093C7
:100AAA0015066ECB84E08093250480E294E080935F
:100ABA00003F9093013F81E08093043F80E193E0FF
:100ACA00809312069093130682E493E080931406AF
:100ADA009093150655CB20E030E220934C0A3093D0
:100AEA004D0A40932504C093003FD093013F909351
:100AFA00043F83ED93E0809312069093130681EFEF
:0C0B0A0093E080931406909315063ACBFC
:100B1600609161006E7F81E690E074D18091630000
:100B260084FFFCCF60916000616080E690E06AD14E
:100B36008091630085FFFCCF60917800626088E752
:100B460090E060D1F89487D08091400A8E7F8093A0
:100B5600400A8091400A82608093400A1092410ABE
:100B66008091410A8093410A80E090E280934C0A8A
:100B760090934D0A8091450A81608093450A1092B0
:100B8600003F1092013F1092043FC7D01092A00080
:100B96008091A00080638093A000809100068E7FE4
:100BA600809300061092000610920106109202062B
:100BB600109203061092040610920506109216066D
:100BC60010920A061092060680910006809300068F
:100BD60080910006826080930006809101068093D2
:100BE60001068091020683648093020680910306C3
:100BF6008F6A8093030680910406846080930406BE
:100C0600809105068F6180930506809106068460B3
:100C16008093060680910A06826080930A06809178
:100C2600160681608093160610921206109213061D
:100C3600109214061092150680910006816080932A
:100C460000068091080681608093080682E1809301
:060C560013017894FFCFAA
:100C5C00CF93DF93E0E0F4E080E88183868384E047
:100C6C0081838683A0E2B4E040E111964C93119706
:100C7C0016964C931697C0E4D4E022E029832E8379
:100C8C0098E011969C93119716969C93169731E0C9
:100C9C0039833E8311968C93119716968C931697E5
:100CAC0011963C93119716963C9316974283348970
:100CBC003460348B40E2428335893460358B228337
:100CCC0031893860318B928333893860338B30E4CF
:100CDC00328336893860368B12962C931297519644
:100CEC002C915197286051962C93519712964C93B6
:100CFC00129755962C915597286055962C938A836C
:100D0C008A8988608A8B9A838B8988608B8BDF9128
:040D1C00CF910895D6
:100D2000CF93DF93E0E2F4E091E09583AFEAB4E0A3
:100D30001197F1F700C00000968384E08583CFEA25
:100D4000D4E02197F1F700C000008683A0E4B4E06E
:100D500015969C931597CFEAD4E02197F1F700C040
:100D6000000016969C93169798E09583CFEAD4E0FE
:100D70002197F1F700C00000968392E015969C93AE
:100D80001597CFEAD4E02197F1F700C0000016963E
:100D90009C9390E19583AFEAB4E01197F1F700C01E
:100DA00000009683E0E0F4E08583CFEAD4E0219769
:100DB000F1F700C00000868380E885838FEA94E025
:0E0DC0000197F1F700C00000DF91CF91089578
:100DCE008F938FB78F93EF93FF93E091003FF09146
:100DDE00013F8091043F8783E0E4FAE086818160E1
:0E0DEE008683FF91EF918F918FBF8F911895A3
:0E0DFC00EC010DD00BD0CE010BD0CE010AD0F1
:0C0E0A00DC0128ED209334006C93089567
:020E1600F4C81E
:020E180008953B
:020E1A00089539
:020E1C00089537
:020E1E0033D9C6
:02000004008278
:0900000000007D0000F6FF000085
:02000004008377
:01000000C53A
:00000001FF
